:1000000080318328303430347E14803120007F08E2
:10001000F500911E7E2823009D1C25281D121D160B
:100020004530F40074082100D2005230F400740806
:10003000D3004F30F4007408D4005630F400740834
:10004000D500D2308731BF27803123001908F40052
:100050007808B23E860087017408810025302100AF
:100060003206031D4B280130F8070030F93D7908AE
:10007000803AF40080307402031D4028103078026A
:10008000031C7E280130F6000030F700F801F9016A
:10009000200091127E284D3021003206031D652874
:1000A0007808B23E860087017C300106031D602877
:1000B0000130F6000030F700F801F901200091123C
:1000C0000130F8070030F93D7E2823001D121D166F
:1000D000F801F9014530F40074082100D2005230D3
:1000E000F4007408D3005230F4007408D40058307F
:1000F000F4007408D500D2308731BF27750820007E
:10010000FF007E1009008031852880310220803177
:10011000FA00803103208031FB00BE3084008F3034
:100120008500693086000030870005308F31C9278F
:1001300080318830840086308500A0308600003011
:10014000870037308F31C9278031143084008730E1
:10015000850020308600013087001E308F31C9278E
:100160008031F601F701F801F901493084000030CF
:10017000850020308F31C3278031D7308400003094
:10018000850008308F31C3277E1020008031C828B9
:1001900029302000C4009630C3007F30890BCE2860
:1001A000C30BCE28C40BCE2801302000CF00003076
:1001B000D0000130CD000030CE000130CB00003047
:1001C000CC000130C9000030CA0001302100DD0040
:1001D0000030DE008F31EB2780318731FD27803101
:1001E00076037704031D062AF601F7012530210066
:1001F0003206031D342925303306031D34294030CF
:100200004006031D342940304106031D3429863140
:10021000BF268031210045082000C3004308AE00FE
:10022000210046082000C4004408AF002100470810
:100230002000C5004508B000210048082000C60085
:100240004608B100210049082000C7004708B20055
:1002500021004A082000C8004808B30021004408D3
:10026000853154258031062A4D3021003206031D88
:10027000B72954303306031DB72912302000A000DF
:100280009030A1005130873189278031153020000E
:10029000A0009030A10051308631EE2680311B3015
:1002A0002000A0009030A10051308631EE26803130
:1002B00015302000A0009030A10051308631EE268C
:1002C000803100302000A0009030A10051308631F4
:1002D000EE26803115302000A0009030A100513072
:1002E0008631EE26803119302000A0009030A10028
:1002F00051308631EE26803115302000A00090303C
:10030000A10051308631EE26803119302000A00046
:100310009030A10051308631EE268031153020001A
:10032000A0009030A10051308631EE268031193086
:100330002000A0009030A10051308631EE2680319F
:1003400015302000A0009030A10051308631EE26FB
:10035000803107302000A0009030A100513086315C
:10036000EE26803151308731A4278031062A45306E
:100370002000C30043082100D20052302000C300F7
:1003800043082100D3004C302000C3004308210063
:10039000D40053302000C30043082100D500D230E0
:1003A00087315027803123009D131D122100DF016A
:1003B000E0016008803A2000C30080304302031D42
:1003C000E4290F3021005F020318032A23302000A4
:1003D000C30021005F08B23E860087012000430869
:1003E000810001302100DF070030E03D6008803AE5
:1003F0002000C30080304302031D012A0F3021007A
:100400005F02031CE62923001D169D170130210001
:10041000E1000030E200303020006A06031D602A4F
:1004200025008C1B602A20004F085004031D602A01
:10043000210061036204031D582A1A302000C30002
:10044000F830890B212AC30B212A000052302300E7
:100450009A0006302000C3003030890B2D2AC30BD0
:100460002D2A0000303023009A0006302000C300FF
:100470003030890B392AC30B392A00003030230071
:100480009A0006302000C3003030890B452AC30B88
:10049000452A0000313023009A0006302000C300B6
:1004A0003030890B512AC30B512A000025008C10D3
:1004B0002100E101E20101302000CF000030D00036
:1004C000303020006A06031DB32A25008C1FB32A92
:1004D00020004F035004031DB32A2100610362046E
:1004E000031DAD2A1A302000C300F830890B762A8C
:1004F000C30B762A0000523023009A0006302000F9
:10050000C3003030890B822AC30B822A00003130AD
:1005100023009A0006302000C3003030890B8E2A59
:10052000C30B8E2A0000303023009A0006302000D2
:10053000C3003030890B9A2AC30B9A2A000031304D
:1005400023009A0006302000C3003030890BA62A11
:10055000C30BA62A000025008C142100E101E20152
:100560002000CF01D001303020006B06031D082B86
:1005700025008C1A082B20004D084E04031D082B63
:10058000210061036204031D002B1A302000C30008
:10059000F830890BC92AC30BC92A00005230230046
:1005A0009A0006302000C3003030890BD52AC30BD7
:1005B000D52A0000303023009A0006302000C30006
:1005C0003030890BE12AC30BE12A000030302300D0
:1005D0009A0006302000C3003030890BED2AC30B8F
:1005E000ED2A0000323023009A0006302000C300BC
:1005F0003030890BF92AC30BF92A000025000C10B2
:100600002100E101E20101302000CD000030CE00E8
:10061000303020006B06031D5B2B25008C1E5B2BEE
:1006200020004D034E04031D5B2B21006103620477
:10063000031D552B1A302000C300F830890B1E2BE8
:10064000C30B1E2B0000523023009A0006302000FE
:10065000C3003030890B2A2BC30B2A2B000031300A
:1006600023009A0006302000C3003030890B362B5F
:10067000C30B362B0000303023009A0006302000D8
:10068000C3003030890B422BC30B422B00003230A9
:1006900023009A0006302000C3003030890B4E2B17
:1006A000C30B4E2B000025000C142100E101E201D8
:1006B0002000CD01CE01303020006C06031DC32B7D
:1006C00025008C19C32B20004B084C04031DC32BA1
:1006D000210061036204031DBB2B12302000A00027
:1006E0009030A100513087318927803115302000AA
:1006F000A0009030A10051308631EE2680311B30B1
:100700002000A0009030A10051308631EE268031CB
:1007100015302000A0009030A10051308631EE2627
:1007200080310D302000A0009030A1005130863182
:10073000EE26803115302000A0009030A10051300D
:100740008631EE26803117302000A0009030A100C5
:1007500051308631EE2680310B302000A0009030E1
:10076000A10051308631EE26803151308731A427E7
:10077000803120008C112100E101E20101302000D4
:10078000CB000030CC00303020006C06031D292C3B
:1007900025008C1D292C20004B034C04031D292C03
:1007A000210061036204031D232C12302000A000ED
:1007B0009030A100513087318927803115302000D9
:1007C000A0009030A10051308631EE2680311B30E0
:1007D0002000A0009030A10051308631EE268031FB
:1007E00015302000A0009030A10051308631EE2657
:1007F00080310D302000A0009030A10051308631B2
:10080000EE26803115302000A0009030A10051303C
:100810008631EE26803119302000A0009030A100F2
:1008200051308631EE2680310B302000A000903010
:10083000A10051308631EE26803151308731A42716
:10084000803120008C152100E101E2012000CB0164
:10085000CC01303020006D06031DBE2C25000C1984
:10086000BE2C200049084A04031DBE2C2100610350
:100870006204031DB62C12302000A0009030A100AD
:10088000513087318927803115302000A000903009
:10089000A10051308631EE2680311D302000A000AD
:1008A0009030A10051308631EE2680311530200085
:1008B000A0009030A10051308631EE26803100300A
:1008C0002000A0009030A10051308631EE2680310A
:1008D00015302000A0009030A10051308631EE2666
:1008E000803117302000A0009030A10051308631B7
:1008F000EE26803115302000A0009030A10051304C
:100900008631EE26803119302000A0009030A10001
:1009100051308631EE26803115302000A000903015
:10092000A10051308631EE26803119302000A00020
:100930009030A10051308631EE26803115302000F4
:10094000A0009030A10051308631EE268031073072
:100950002000A0009030A10051308631EE26803179
:1009600051308731A427803120000C112100E10192
:10097000E20101302000C9000030CA003030200000
:100980006D06031DF02825000C1DF02820004903EA
:100990004A04031DF0282100D901DA016103620431
:1009A000031D4D2D12302000A0009030A1005130C9
:1009B00087318927803115302000A0009030A100B8
:1009C00051308631EE2680311D302000A00090305D
:1009D000A10051308631EE26803115302000A00074
:1009E0009030A10051308631EE2680310030200059
:1009F000A0009030A10051308631EE2680311530B4
:100A00002000A0009030A10051308631EE268031C8
:100A100019302000A0009030A10051308631EE2620
:100A2000803115302000A0009030A1005130863177
:100A3000EE26803119302000A0009030A100513006
:100A40008631EE26803115302000A0009030A100C4
:100A500051308631EE26803119302000A0009030D0
:100A6000A10051308631EE26803115302000A000E3
:100A70009030A10051308631EE26803107302000C1
:100A8000A0009030A10051308631EE2680315130E7
:100A90008731A427803120000C152100E101E201FB
:100AA0002000C901CA01F0282000B800BD01BE0124
:100AB000BF01C001B601B701C101C2012100510847
:100AC0002000BA00210050082000B90021004F0882
:100AD0002000BC0021004E082000BB003808B400F4
:100AE0003408B9002E08B4003408BA003930863111
:100AF0001D26853120002708BE002608BD002F08CE
:100B0000D03EBF00FF3003180030C0003008B400F2
:100B10003408BB003108B4003408BC003B308631D7
:100B20001D26853120002708B7002608B6003208A8
:100B3000B4003D08693E86008701340881003E0804
:100B4000B5003D08B400B435B50DB435B50D340865
:100B5000FC3EC100FF30353DC2004730B4004108C3
:100B6000203E860001308700340881000130C10733
:100B70000030C23D2F08B4004108203E86000130FD
:100B80008700340881000130C1070030C23D3808B9
:100B9000B4004108203E86000130870034088100FF
:100BA0000130C1070030C23D2E08B4004108203E8C
:100BB00086000130870034088100FD30C107FF3016
:100BC000C23D31303306031D082E4108203E8731D7
:100BD00032278531082E20003F0C2500031C8C1085
:100BE00003188C14080020003F0C2500031C0C1077
:100BF00003180C14080020003F0C031C8C11031870
:100C00008C1508003F0C031C0C1103180C15080070
:100C100020003E08003A03190E2E1C2E3D08013A12
:100C20000319EB2D033A0319F32D013A0319FB2D98
:100C3000073A0319022E1C2E08002000AD002D08D3
:100C40008600870120300106031D2B2E0130A800ED
:100C50002808AD071F2E2D088600870109300106E0
:100C60000319262EAB01AC01AA012D0886008701CD
:100C70002D300106031D412E0130A8002808AA07C7
:100C8000482E2D08860087012B300106031D4C2EAF
:100C90000130A8002808AD072D088600870101084B
:100CA0008731EE278631031C732E20002C08A1000B
:100CB0002B08A0000A30A2000030A30087316D2766
:100CC000863120002D088600870101082007A80032
:100CD00021080318210AA9002808D03EAB00FF30E4
:100CE000293DAC00482E20002A080319832E2B0929
:100CF000A8002C09A900A80A0319A90A2808A60017
:100D00002908A70008002C08A7002B08A600080047
:100D10002334003400340034003400340034003410
:100D20000034003400340034003400340034003423
:100D300000340034233400340034003400340034F0
:100D40000034003400340034003400340034003403
:100D500000340034003400342334003400340034D0
:100D600000340034003400340034003423340034C0
:100D70002334003423342334233423340034023026
:100D80002000A1000030A2000230A1000030A2002B
:100D90002208803AA00080302002031DD12E0930A5
:100DA00021020318080020002108B23E86008701B6
:100DB0000108A0002108FE3EC43E860087012008ED
:100DC00081002330A0002108B23E86008701200860
:100DD00081000130A1070030A23DC82E2000A400F0
:100DE0002408A2002208A300230886008701010826
:100DF0000319072F0130A2002208A307F42E0130A7
:100E0000A2002208A3070130A0070030A13D23085B
:100E10008600870120088400210885000008C03F63
:100E2000890803190800FF2E2334003400340034ED
:100E30000034003400340034003400340034003412
:100E40000034003400340034003400340034003402
:100E500000340034003400340034003400340034F2
:100E6000003400342000A300A101A20104302106B7
:100E700022040319080023009E1C3B2F2000230896
:100E8000860001308700010823009A00013020000D
:100E9000A0002008A3070130A1070030A23D362F93
:100EA0002000A300A101A20104302106220403199D
:100EB000080023009E1C592F20002308860087016C
:100EC000010823009A0001302000A0002008A30799
:100ED0000130A1070030A23D542F2000A401A5013C
:100EE000201C762F2208A4072308A53D0130A23537
:100EF000A30D890B772F0130A136A00C890B7C2F15
:100F000020082104031D702F2508A1002408A0003B
:100F100008002000A4002408A2002208A30023083F
:100F20008600870120088400210885000008C03F52
:100F30008908031908000130A2002208A307013024
:100F4000A0070030A13D8F2F2000A300A101A20126
:100F500023080319080023009E1CAB2F2000230840
:100F600086008701010823009A0001302000A000BC
:100F70002008A3070130A1070030A23DA82FF300ED
:100F8000F101F20104307106720403190800230014
:100F90009E1CC72F73088600870101089A00013044
:100FA000F0007008F3070130F1070030F23DC22F66
:100FB0002100911211120A3023009F0090309D00F1
:100FC00024309E00A0309B0001309C008B170B1733
:100FD0002100911623009E169D1708002000A100F5
:100FE000A0013A3021020318FB2F30302102031CEC
:100FF000FB2FA001A00A200C08008731D827080089
:101F7C00303430343034303430346400800101314A
:101F8C00890BC42F0034FE0012001E00FE0BCA2F5A
:101F9C00003425008C100C1020008C110C11080042
:101FAC0028008D0129008D0128008C01230090014F
:101FBC002400900123008F0124008F0123008D0148
:101FCC0024008D0123008C0108008F31CF278F3125
:101FDC008F31D6278F3126008C178C168C150C154B
:101FEC008C100C1021008C110C110E138E178F31CC
:101FFC00CF270800413443345434413443344B34F8
:10200C00003431343034303430347C340034523495
:10201C0045344134443400344D34543400342E347B
:10202C00003430340034313400343334003434343C
:02203C0000346E
:020000040001F9
:04000E00A2C9FFDDA7
:00000001FF
