:1000000080318B28303430347E14803120007F08DA
:10001000F500911E862823009D1C28281D121D1600
:100020004530F40074082000E6005230F4007408F3
:10003000E7004F30F4007408E8005630F40074080C
:10004000E9006630F0000030F10087317D27803113
:1000500023001908F4007808A03E86008701740880
:100060008100253021002006031D4D280130F807AE
:100070000030F93D7908803AF40080307402031DA5
:10008000432810307802031C862801302000D1005C
:100090000030D200F801F90168284D302100200617
:1000A000031D6A28200803196A280130F807003068
:1000B000F93D7808A03E860087017C300106031DCB
:1000C00086280130F6000030F700F801F901200021
:1000D0009112862823001D121D16F801F9014530E2
:1000E000F40074082000E6005230F4007408E700C1
:1000F0005230F4007408E8005830F4007408E90045
:100100006630F0000030F10087317D27750820004F
:10011000FF007E10090080318D288031022080315F
:10012000FA00803103208031FB00E5308400873005
:1001300085005D308600003087000E308731FA2759
:1001400080312A30840087308500A030860000305E
:1001500087001C308731FA27803197308400863041
:10016000850020308600013087001E308731FA2755
:100170008031F601F701F801F9014D3084000030BB
:10018000850010308F31F3278031BC30840000307F
:10019000850018308F31F3277E1020008031D02861
:1001A00029302000C4009630C3007F30890BD62848
:1001B000C30BD628C40BD62801302000DB0000304A
:1001C000DC000130D9000030DA000130D700003007
:1001D000D8000130D5000030D6000130D300003007
:1001E000D4008731AC2780318F31F0278031200057
:1001F00051035204031D9729D101D201253021005A
:100200002006031D3C2925302106031D3C294030D2
:100210002E06031D3C2940302F06031D3C29863144
:1002200042268031210033082000C3004308AE007D
:10023000210034082000C4004408AF002100350824
:100240002000C5004508B000210036082000C60087
:100250004608B100210037082000C7004708B20057
:10026000210038082000C8004808B30021003208E7
:100270008531162580319729523021002006031D33
:10028000562954302106031D562931302906031DF5
:10029000562901302000CF000030D0000530A000EA
:1002A0009030A10087310D278031972945302000FB
:1002B000C3004308E6005230C3004308E7004C3057
:1002C000C3004308E8005330C3004308E900663028
:1002D0008631F026803123009D131D122000C901B4
:1002E000CA014A08803AC30080304302031D7A29BC
:1002F0000F3049020318942923302000C300490815
:10030000A03E86008701430881000130C907003004
:10031000CA3D4A08803AC30080304302031D922937
:100320000F304902031C7C2923001D169D17013044
:100330002000CB000030CC0030305E06031DEE29DB
:1003400025008C1BEE2920005B085C04031DEE29B0
:100350004B034C04031DE7291A302000C300F8307A
:10036000890BB029C30BB0290000523023009A003A
:1003700006302000C3003030890BBC29C30BBC29D8
:100380000000303023009A0006302000C3003030D7
:10039000890BC829C30BC8290000303023009A00FC
:1003A00006302000C3003030890BD429C30BD42978
:1003B0000000313023009A0006302000C3003030A6
:1003C000890BE029C30BE029000025008C102000D8
:1003D000CB01CC010130DB000030DC0030302000EC
:1003E0005E06031D3F2A25008C1F3F2A20005B0369
:1003F0005C04031D3F2A4B034C04031D3A2A1A30A8
:100400002000C300F830890B032AC30B032A000025
:10041000523023009A0006302000C3003030890B90
:100420000F2AC30B0F2A0000313023009A00063038
:100430002000C3003030890B1B2AC30B1B2A00008D
:10044000303023009A0006302000C3003030890B82
:10045000272AC30B272A0000313023009A000630D8
:100460002000C3003030890B332AC30B332A00002D
:1004700025008C142000CB01CC01DB01DC013030E5
:1004800020005F06031D922A25008C1A922A200064
:1004900059085A04031D922A4B034C04031D8B2A4E
:1004A0001A302000C300F830890B542AC30B542A99
:1004B0000000523023009A0006302000C300303084
:1004C000890B602AC30B602A0000303023009A0099
:1004D00006302000C3003030890B6C2AC30B6C2A15
:1004E0000000303023009A0006302000C300303076
:1004F000890B782AC30B782A0000323023009A0037
:1005000006302000C3003030890B842AC30B842AB4
:10051000000025000C102000CB01CC010130D900D7
:100520000030DA00303020005F06031DE32A25008A
:100530008C1EE32A200059035A04031DE32A4B03AF
:100540004C04031DDE2A1A302000C300F830890B4A
:10055000A72AC30BA72A0000523023009A000630B6
:100560002000C3003030890BB32AC30BB32A00002C
:10057000313023009A0006302000C3003030890B50
:10058000BF2AC30BBF2A0000303023009A00063078
:100590002000C3003030890BCB2AC30BCB2A0000CC
:1005A000323023009A0006302000C3003030890B1F
:1005B000D72AC30BD72A000025000C142000CB013A
:1005C000CC01D901DA01303020006006031D712B07
:1005D00025008C19712B200057085804031D712B1E
:1005E000313021002906031D712B20004B034C04E0
:1005F000031D6B2B0A30A0009030A100BC30873166
:10060000622780310D302000A0009030A100BC3066
:1006100086317126803111302000A0009030A10079
:10062000BC308631712680310D302000A000903022
:10063000A100BC30863171268031F3302000A0004B
:100640008730A100BC308631712680310D3020000A
:10065000A0009030A100BC3086317126803103307B
:100660002000A0009030A100BC308631712680317E
:100670000D302000A0009030A100BC3086317126E2
:1006800080310F302000A0009030A100BC308631B6
:10069000712680310D302000A0009030A100BC30C8
:1006A00086317126803100302000A0009030A100FA
:1006B000BC3086317126803115302000A00090308A
:1006C000A100BC30863171268031BC308631D32602
:1006D000803120008C11CB01CC010130D7000030DB
:1006E000D800303020006006031DFF2B25008C1D34
:1006F000FF2B200057035804031DFF2B313021002E
:100700002906031DFF2B2000CF01D0014B034C0411
:10071000031DFB2B0A30A0009030A100BC308631B5
:10072000712680310D302000A0009030A100BC3037
:1007300086317126803111302000A0009030A10058
:10074000BC308631712680310D302000A000903001
:10075000A100BC30863171268031F3302000A0002A
:100760008730A100BC308631712680310D302000E9
:10077000A0009030A100BC308631712680310F304E
:100780002000A0009030A100BC308631712680315D
:100790000D302000A0009030A100BC3086317126C1
:1007A00080310F302000A0009030A100BC30863195
:1007B000712680310D302000A0009030A100BC30A7
:1007C00086317126803100302000A0009030A100D9
:1007D000BC3086317126803115302000A000903069
:1007E000A100BC30863171268031BC308631D326E1
:1007F000803120008C15CB01CC01D701D8013030DD
:1008000020006106031D8D2C25000C198D2C200065
:1008100055085604031D8D2C313021002906031D77
:100820008D2C20004B034C04031D872C0A30A000A4
:100830009030A100BC308731622780310D3020001C
:10084000A0009030A100BC30863171268031133079
:100850002000A0009030A100BC308631712680318C
:100860000D302000A0009030A100BC3086317126F0
:100870008031F3302000A0008730A100BC308631E9
:10088000712680310D302000A0009030A100BC30D6
:1008900086317126803103302000A0009030A10005
:1008A000BC308631712680310D302000A0009030A0
:1008B000A100BC308631712680310F302000A000AD
:1008C0009030A100BC308631712680310D3020007F
:1008D000A0009030A100BC308631712680310030FC
:1008E0002000A0009030A100BC30863171268031FC
:1008F00015302000A0009030A100BC308631712658
:100900008031BC308631D326803120000C11CB01E0
:10091000CC010130D5000030D60030302000610617
:10092000031DF72825000C1DF72820005503560449
:10093000031DF728CF01D0014B034C04031D112DDB
:100940000A30A0009030A100BC308731622780318E
:100950000D302000A0009030A100BC3086317126FF
:10096000803113302000A0009030A100BC308631CF
:10097000712680310D302000A0009030A100BC30E5
:10098000863171268031F3302000A0008730A1002D
:10099000BC308631712680310D302000A0009030AF
:1009A000A100BC308631712680310F302000A000BC
:1009B0009030A100BC308631712680310D3020008E
:1009C000A0009030A100BC308631712680310F30FC
:1009D0002000A0009030A100BC308631712680310B
:1009E0000D302000A0009030A100BC30863171266F
:1009F000803100302000A0009030A100BC30863152
:100A00007126803115302000A0009030A100BC304C
:100A1000863171268031BC308631D326803120006A
:100A20000C15CB01CC01D501D601F7282000B80068
:100A3000BD01BE01BF01C001B601B701C101C201C4
:100A40006508BA006408B9006308BC006208BB000E
:100A50003808B4003408B9002E08B4003408BA00CD
:100A600039308531D725853120002708BE0026087A
:100A7000BD002F08D03EBF00FF3003180030C0007B
:100A80003008B4003408BB003108B4003408BC009E
:100A90003B308531D725853120002708B70026084F
:100AA000B6003208B4003D085D3E86008701340878
:100AB00081003E08B5003D08B400B435B50DB4352D
:100AC000B50D3408FC3EC100FF30353DC200473053
:100AD000B4004108203E86000130870034088100C0
:100AE0000130C1070030C23D2F08B4004108203E4C
:100AF000860001308700340881000130C1070030D2
:100B0000C23D3808B4004108203E8600013087000D
:100B1000340881000130C1070030C23D2E08B40006
:100B20004108203E86000130870034088100FD30F6
:100B3000C107FF30C23D31303306031DC22D4108CD
:100B4000203E8631B5268531C22D20003F0C250080
:100B5000031C8C1003188C14080020003F0C250087
:100B6000031C0C1003180C14080020003F0C031C7D
:100B70008C1103188C1508003F0C031C0C11031872
:100B80000C15080020003E08003A0319C82DD62D88
:100B90003D08013A0319A52D033A0319AD2D013A79
:100BA0000319B52D073A0319BC2DD62D08002000D6
:100BB000AD002D088600870120300106031DE52DBC
:100BC0000130A8002808AD07D92D2D08860087011F
:100BD000093001060319E02DAB01AC01AA012D0873
:100BE000860087012D300106031DFB2D0130A80072
:100BF0002808AA07022E2D08860087012B3001063F
:100C0000031D062E0130A8002808AD072D08860018
:100C1000870101088731D6278531031C2D2E20003E
:100C20002C08A1002B08A0000A30A2000030A3006D
:100C300087314627853120002D088600870101086D
:100C40002007A80021080318210AA9002808D03E7F
:100C5000AB00FF30293DAC00022E20002A0803190A
:100C60003D2E2B09A8002C09A900A80A0319A90ADE
:100C70002808A6002908A70008002C08A7002B08B0
:100C8000A600080002302000A1000030A2000230BF
:100C9000A1000030A2002208803AA000803020028B
:100CA000031D542E093021020318080020002108DA
:100CB000A03E860087010108A0002108FE3EB23E4A
:100CC00086008701200881002330A0002108A03E73
:100CD00086008701200881000130A1070030A23D75
:100CE0004B2E2000A4002408A2002208A300230801
:100CF00086008701010803198A2E0130A20022080C
:100D0000A307772E0130A2002208A3070130A00715
:100D10000030A13D230886008701200884002108B7
:100D200085000008C03F890803190800822E23347B
:100D30000034003400340034003400340034003413
:100D40000034003400340034003400340034003403
:100D500000340034003400340034003400340034F3
:100D6000003400340034003400342000A300A1011A
:100D7000A2010430210622040319080023009E1C4E
:100D8000BE2E2000230886000130870001082300C2
:100D90009A0001302000A0002008A3070130A1071D
:100DA0000030A23DB92E2000A300A101A2011630FF
:100DB000210622040319080023009E1CDC2E2000BB
:100DC000230886008701010823009A0001302000D3
:100DD000A0002008A3070130A1070030A23DD72EB4
:100DE0002000A300A101A20104302106220403195E
:100DF000080023009E1CF92E20002308860087018E
:100E0000010823009A0001302000A0002008A30759
:100E10000130A1070030A23DF42E2000A201A30161
:100E20000430220623040319080023009E1C152FFA
:100E300020002008840021088500000823009A0073
:100E400001302000A0070030A13D0130A207003092
:100E5000A33D102F23340034003400340034003418
:100E600000340034003400340034003400340034E2
:100E700000340034003400342334003400340034AF
:100E80000034003400340034003400342000A40165
:100E9000A501201C4F2F2208A4072308A53D0130DF
:100EA000A235A30D890B502F0130A136A00C890B60
:100EB000552F20082104031D492F2508A1002408CF
:100EC000A00008002000A4002408A2002208A3001B
:100ED0002308860087012008840021088500000877
:100EE000C03F8908031908000130A2002208A307A7
:100EF0000130A0070030A13D682FF201F30104305A
:100F0000720673040319080023009E1C842F7008C6
:100F100084007108850000089A000130F007003055
:100F2000F13D0130F2070030F33D7F2F2100911297
:100F300011120A3023009F0090309D0024309E0043
:100F4000A0309B0001309C008B170B1721009116DD
:100F500023009E169D1708008F31F92787318731AE
:100F6000C127873126008C178C168C150C158C1018
:100F70000C1021008C110C110E138E178F31F927D4
:100F8000080028008D0129008D0128008C01230014
:100F900090012400900123008F0124008F01230081
:100FA0008D0124008D0123008C0108002000A10088
:100FB000A0013A3021020318E32F30302102031C34
:100FC000E32FA001A00A200C080030343034303464
:100FD0003034303423340034233400342334233485
:100FE000233423340034413443344B3441344334C8
:100FF00054340034FE0012001E00FE0BFB2F0034A0
:101FE000873196270800640080010131890BF42FA6
:101FF000003425008C100C1020008C110C110800EE
:10200000313430343034303400344D344F3454347F
:102010004E3400344D34543400342E3400343134D2
:0E202000003433340034343400347C34003463
:020000040001F9
:04000E00A2C9FFDDA7
:00000001FF
